{
  "contractName": "Payment",
  "abi": [
    {
      "inputs": [],
      "payable": false,
      "stateMutability": "nonpayable",
      "type": "constructor"
    },
    {
      "constant": true,
      "inputs": [],
      "name": "getBalanceAmount",
      "outputs": [
        {
          "internalType": "uint256",
          "name": "",
          "type": "uint256"
        }
      ],
      "payable": false,
      "stateMutability": "view",
      "type": "function"
    },
    {
      "constant": true,
      "inputs": [],
      "name": "getDepositAmount",
      "outputs": [
        {
          "internalType": "uint256",
          "name": "",
          "type": "uint256"
        }
      ],
      "payable": false,
      "stateMutability": "view",
      "type": "function"
    },
    {
      "constant": false,
      "inputs": [
        {
          "internalType": "uint256",
          "name": "amt1",
          "type": "uint256"
        }
      ],
      "name": "addDepositAmount",
      "outputs": [],
      "payable": false,
      "stateMutability": "nonpayable",
      "type": "function"
    },
    {
      "constant": false,
      "inputs": [
        {
          "internalType": "uint256",
          "name": "amt2",
          "type": "uint256"
        }
      ],
      "name": "withdrawBalance",
      "outputs": [],
      "payable": false,
      "stateMutability": "nonpayable",
      "type": "function"
    }
  ],
  "bytecode": "0x608060405234801561001057600080fd5b5060006001819055506000808190555061016e8061002f6000396000f3fe608060405234801561001057600080fd5b506004361061004c5760003560e01c806358d3e10f146100515780637d96f6931461006f578063a59c12451461008d578063da76d5cd146100bb575b600080fd5b6100596100e9565b6040518082815260200191505060405180910390f35b6100776100f2565b6040518082815260200191505060405180910390f35b6100b9600480360360208110156100a357600080fd5b81019080803590602001909291905050506100fc565b005b6100e7600480360360208110156100d157600080fd5b810190808035906020019092919050505061012b565b005b60008054905090565b6000600154905090565b600060018190555080600154016001819055506000600154111561012857600154600054016000819055505b50565b80600054036000819055505056fea265627a7a723158205d745d9020e9f7e9a15b9167b894169f89d9925b86c6b3fd56a33d5f1f26036864736f6c63430005100032",
  "source": "pragma solidity 0.5.16;\r\n\r\ncontract Payment {\r\n    uint256 balanceAmount;\r\n    uint256 depositAmount;\r\n\r\n    constructor() public {\r\n        depositAmount = 0;\r\n        balanceAmount = 0;\r\n    }\r\n\r\n    function getBalanceAmount() public view returns (uint256) {\r\n        return balanceAmount;\r\n    }\r\n\r\n    function getDepositAmount() public view returns (uint256) {\r\n        return depositAmount;\r\n    }\r\n\r\n    function addDepositAmount(uint256 amt1) public {\r\n        depositAmount = 0;\r\n        depositAmount = depositAmount + amt1;\r\n        if (depositAmount > 0) balanceAmount = balanceAmount + depositAmount;\r\n    }\r\n\r\n    function withdrawBalance(uint256 amt2) public {\r\n        balanceAmount = balanceAmount - amt2;\r\n    }\r\n}\r\n",
  "sourcePath": "D:/ShopChain/New folder/app/contracts/Payment.sol",
  "compiler": {
    "name": "solc",
    "version": "0.5.16+commit.9c3226ce.Emscripten.clang"
  },
  "schemaVersion": "3.4.1",
  "updatedAt": "2021-07-23T16:19:53.220Z",
  "devdoc": {
    "methods": {}
  },
  "userdoc": {
    "methods": {}
  }
}